{
  "address": "0xe7f1725E7734CE288F8367e1Bb143E90bb3F0512",
  "abi": [
    {
      "inputs": [
        {
          "internalType": "address",
          "name": "_allowedStakeToken",
          "type": "address"
        },
        {
          "internalType": "address",
          "name": "_rewardsToken",
          "type": "address"
        },
        {
          "internalType": "uint256",
          "name": "_rateX1m",
          "type": "uint256"
        },
        {
          "internalType": "uint256",
          "name": "_minStakingPeriodInSec",
          "type": "uint256"
        }
      ],
      "stateMutability": "nonpayable",
      "type": "constructor"
    },
    {
      "inputs": [],
      "name": "StakingToken__InsufficientBalance",
      "type": "error"
    },
    {
      "inputs": [],
      "name": "StakingToken__MinimumStakingPeriodHasNotPassed",
      "type": "error"
    },
    {
      "inputs": [],
      "name": "StakingToken__MustBeGreaterthanZero",
      "type": "error"
    },
    {
      "inputs": [],
      "name": "StakingToken__NoUnclaimedReward",
      "type": "error"
    },
    {
      "inputs": [],
      "name": "StakingToken__TransactionFailed",
      "type": "error"
    },
    {
      "inputs": [],
      "name": "StakingToken__ZeroAddress",
      "type": "error"
    },
    {
      "anonymous": false,
      "inputs": [
        {
          "indexed": true,
          "internalType": "address",
          "name": "beneficiary",
          "type": "address"
        },
        {
          "indexed": false,
          "internalType": "uint256",
          "name": "amount",
          "type": "uint256"
        }
      ],
      "name": "Claimed",
      "type": "event"
    },
    {
      "anonymous": false,
      "inputs": [
        {
          "indexed": false,
          "internalType": "address",
          "name": "account",
          "type": "address"
        }
      ],
      "name": "Paused",
      "type": "event"
    },
    {
      "anonymous": false,
      "inputs": [
        {
          "indexed": true,
          "internalType": "bytes32",
          "name": "role",
          "type": "bytes32"
        },
        {
          "indexed": true,
          "internalType": "bytes32",
          "name": "previousAdminRole",
          "type": "bytes32"
        },
        {
          "indexed": true,
          "internalType": "bytes32",
          "name": "newAdminRole",
          "type": "bytes32"
        }
      ],
      "name": "RoleAdminChanged",
      "type": "event"
    },
    {
      "anonymous": false,
      "inputs": [
        {
          "indexed": true,
          "internalType": "bytes32",
          "name": "role",
          "type": "bytes32"
        },
        {
          "indexed": true,
          "internalType": "address",
          "name": "account",
          "type": "address"
        },
        {
          "indexed": true,
          "internalType": "address",
          "name": "sender",
          "type": "address"
        }
      ],
      "name": "RoleGranted",
      "type": "event"
    },
    {
      "anonymous": false,
      "inputs": [
        {
          "indexed": true,
          "internalType": "bytes32",
          "name": "role",
          "type": "bytes32"
        },
        {
          "indexed": true,
          "internalType": "address",
          "name": "account",
          "type": "address"
        },
        {
          "indexed": true,
          "internalType": "address",
          "name": "sender",
          "type": "address"
        }
      ],
      "name": "RoleRevoked",
      "type": "event"
    },
    {
      "anonymous": false,
      "inputs": [
        {
          "indexed": true,
          "internalType": "address",
          "name": "staker",
          "type": "address"
        },
        {
          "indexed": false,
          "internalType": "uint256",
          "name": "amount",
          "type": "uint256"
        }
      ],
      "name": "Staked",
      "type": "event"
    },
    {
      "anonymous": false,
      "inputs": [
        {
          "indexed": false,
          "internalType": "address",
          "name": "account",
          "type": "address"
        }
      ],
      "name": "Unpaused",
      "type": "event"
    },
    {
      "anonymous": false,
      "inputs": [
        {
          "indexed": true,
          "internalType": "address",
          "name": "beneficiary",
          "type": "address"
        },
        {
          "indexed": false,
          "internalType": "uint256",
          "name": "amount",
          "type": "uint256"
        }
      ],
      "name": "Unstaked",
      "type": "event"
    },
    {
      "inputs": [],
      "name": "DEFAULT_ADMIN_ROLE",
      "outputs": [
        {
          "internalType": "bytes32",
          "name": "",
          "type": "bytes32"
        }
      ],
      "stateMutability": "view",
      "type": "function"
    },
    {
      "inputs": [],
      "name": "MANAGER_ROLE",
      "outputs": [
        {
          "internalType": "bytes32",
          "name": "",
          "type": "bytes32"
        }
      ],
      "stateMutability": "view",
      "type": "function"
    },
    {
      "inputs": [],
      "name": "PAUSER_ROLE",
      "outputs": [
        {
          "internalType": "bytes32",
          "name": "",
          "type": "bytes32"
        }
      ],
      "stateMutability": "view",
      "type": "function"
    },
    {
      "inputs": [
        {
          "internalType": "address",
          "name": "",
          "type": "address"
        }
      ],
      "name": "accumulatedRewardAmount",
      "outputs": [
        {
          "internalType": "uint256",
          "name": "",
          "type": "uint256"
        }
      ],
      "stateMutability": "view",
      "type": "function"
    },
    {
      "inputs": [],
      "name": "claimReward",
      "outputs": [],
      "stateMutability": "nonpayable",
      "type": "function"
    },
    {
      "inputs": [
        {
          "internalType": "address",
          "name": "_beneficiary",
          "type": "address"
        }
      ],
      "name": "claimRewardFor",
      "outputs": [],
      "stateMutability": "nonpayable",
      "type": "function"
    },
    {
      "inputs": [
        {
          "internalType": "bytes32",
          "name": "role",
          "type": "bytes32"
        }
      ],
      "name": "getRoleAdmin",
      "outputs": [
        {
          "internalType": "bytes32",
          "name": "",
          "type": "bytes32"
        }
      ],
      "stateMutability": "view",
      "type": "function"
    },
    {
      "inputs": [],
      "name": "getStakersAddresses",
      "outputs": [
        {
          "internalType": "address[]",
          "name": "",
          "type": "address[]"
        }
      ],
      "stateMutability": "view",
      "type": "function"
    },
    {
      "inputs": [
        {
          "internalType": "bytes32",
          "name": "role",
          "type": "bytes32"
        },
        {
          "internalType": "address",
          "name": "account",
          "type": "address"
        }
      ],
      "name": "grantRole",
      "outputs": [],
      "stateMutability": "nonpayable",
      "type": "function"
    },
    {
      "inputs": [
        {
          "internalType": "bytes32",
          "name": "role",
          "type": "bytes32"
        },
        {
          "internalType": "address",
          "name": "account",
          "type": "address"
        }
      ],
      "name": "hasRole",
      "outputs": [
        {
          "internalType": "bool",
          "name": "",
          "type": "bool"
        }
      ],
      "stateMutability": "view",
      "type": "function"
    },
    {
      "inputs": [],
      "name": "minStakingPeriodInSec",
      "outputs": [
        {
          "internalType": "uint256",
          "name": "",
          "type": "uint256"
        }
      ],
      "stateMutability": "view",
      "type": "function"
    },
    {
      "inputs": [],
      "name": "oneYearInsec",
      "outputs": [
        {
          "internalType": "uint256",
          "name": "",
          "type": "uint256"
        }
      ],
      "stateMutability": "view",
      "type": "function"
    },
    {
      "inputs": [],
      "name": "pause",
      "outputs": [],
      "stateMutability": "nonpayable",
      "type": "function"
    },
    {
      "inputs": [],
      "name": "paused",
      "outputs": [
        {
          "internalType": "bool",
          "name": "",
          "type": "bool"
        }
      ],
      "stateMutability": "view",
      "type": "function"
    },
    {
      "inputs": [
        {
          "internalType": "bytes32",
          "name": "role",
          "type": "bytes32"
        },
        {
          "internalType": "address",
          "name": "account",
          "type": "address"
        }
      ],
      "name": "renounceRole",
      "outputs": [],
      "stateMutability": "nonpayable",
      "type": "function"
    },
    {
      "inputs": [],
      "name": "returnOnStakingX1m",
      "outputs": [
        {
          "internalType": "uint256",
          "name": "",
          "type": "uint256"
        }
      ],
      "stateMutability": "view",
      "type": "function"
    },
    {
      "inputs": [
        {
          "internalType": "bytes32",
          "name": "role",
          "type": "bytes32"
        },
        {
          "internalType": "address",
          "name": "account",
          "type": "address"
        }
      ],
      "name": "revokeRole",
      "outputs": [],
      "stateMutability": "nonpayable",
      "type": "function"
    },
    {
      "inputs": [],
      "name": "rewardsToken",
      "outputs": [
        {
          "internalType": "contract IERC20",
          "name": "",
          "type": "address"
        }
      ],
      "stateMutability": "view",
      "type": "function"
    },
    {
      "inputs": [
        {
          "internalType": "address",
          "name": "_allowedStakeToken",
          "type": "address"
        }
      ],
      "name": "setAllowedToken",
      "outputs": [],
      "stateMutability": "nonpayable",
      "type": "function"
    },
    {
      "inputs": [
        {
          "internalType": "uint256",
          "name": "_periodInsec",
          "type": "uint256"
        }
      ],
      "name": "setMinStakingPeriod",
      "outputs": [],
      "stateMutability": "nonpayable",
      "type": "function"
    },
    {
      "inputs": [
        {
          "internalType": "address",
          "name": "_rewardsToken",
          "type": "address"
        }
      ],
      "name": "setRewardToken",
      "outputs": [],
      "stateMutability": "nonpayable",
      "type": "function"
    },
    {
      "inputs": [
        {
          "internalType": "uint256",
          "name": "_rateX1m",
          "type": "uint256"
        }
      ],
      "name": "setRewardsRateX1m",
      "outputs": [],
      "stateMutability": "nonpayable",
      "type": "function"
    },
    {
      "inputs": [
        {
          "internalType": "uint256",
          "name": "_amount",
          "type": "uint256"
        }
      ],
      "name": "stake",
      "outputs": [],
      "stateMutability": "nonpayable",
      "type": "function"
    },
    {
      "inputs": [
        {
          "internalType": "address",
          "name": "",
          "type": "address"
        }
      ],
      "name": "stakeOf",
      "outputs": [
        {
          "internalType": "uint256",
          "name": "amount",
          "type": "uint256"
        },
        {
          "internalType": "uint256",
          "name": "startTime",
          "type": "uint256"
        },
        {
          "internalType": "uint256",
          "name": "lastClaimTime",
          "type": "uint256"
        }
      ],
      "stateMutability": "view",
      "type": "function"
    },
    {
      "inputs": [],
      "name": "stakingToken",
      "outputs": [
        {
          "internalType": "contract IERC20",
          "name": "",
          "type": "address"
        }
      ],
      "stateMutability": "view",
      "type": "function"
    },
    {
      "inputs": [
        {
          "internalType": "bytes4",
          "name": "interfaceId",
          "type": "bytes4"
        }
      ],
      "name": "supportsInterface",
      "outputs": [
        {
          "internalType": "bool",
          "name": "",
          "type": "bool"
        }
      ],
      "stateMutability": "view",
      "type": "function"
    },
    {
      "inputs": [
        {
          "internalType": "uint256",
          "name": "_amount",
          "type": "uint256"
        }
      ],
      "name": "unStake",
      "outputs": [],
      "stateMutability": "nonpayable",
      "type": "function"
    },
    {
      "inputs": [],
      "name": "unpause",
      "outputs": [],
      "stateMutability": "nonpayable",
      "type": "function"
    },
    {
      "inputs": [],
      "name": "withdrawEther",
      "outputs": [],
      "stateMutability": "nonpayable",
      "type": "function"
    },
    {
      "stateMutability": "payable",
      "type": "receive"
    }
  ],
  "transactionHash": "0x5de861e010a0075f580b2649f0b4d81d10c02c8ae78893649590a6e73c191932",
  "args": [
    "0x5FbDB2315678afecb367f032d93F642f64180aa3",
    "0x5FbDB2315678afecb367f032d93F642f64180aa3",
    1000000,
    2592000
  ],
  "numDeployments": 1,
  "solcInputHash": "70a74f91bef8879987a37d3aac479cfe",
  "bytecode": "0x60806040523480156200001157600080fd5b50604051620044be380380620044be833981810160405281019062000037919062000c64565b60016000819055506000600160006101000a81548160ff0219169083151502179055506200006f6000801b336200012160201b60201c565b620000a17f241ecf16d79d0f8dbfb92cbc07fe17840425976cf0667f022fe9877caa831b08336200012160201b60201c565b620000d37f65d7a28e3265b37a6474929f336521b332c1681b933f6cb9f3376673440d862a336200012160201b60201c565b620000e4846200021360201b60201c565b620000f583620002f360201b60201c565b6200010682620003d360201b60201c565b62000117816200045b60201b60201c565b5050505062001170565b620001338282620004d360201b60201c565b6200020f5760016002600084815260200190815260200160002060000160008373ffffffffffffffffffffffffffffffffffffffff1673ffffffffffffffffffffffffffffffffffffffff16815260200190815260200160002060006101000a81548160ff021916908315150217905550620001b46200053e60201b60201c565b73ffffffffffffffffffffffffffffffffffffffff168173ffffffffffffffffffffffffffffffffffffffff16837f2f8788117e7eff1d82e926ec794901d17c78024a50270940304540a733656f0d60405160405180910390a45b5050565b7f241ecf16d79d0f8dbfb92cbc07fe17840425976cf0667f022fe9877caa831b0862000245816200054660201b60201c565b81600073ffffffffffffffffffffffffffffffffffffffff168173ffffffffffffffffffffffffffffffffffffffff1603620002ad576040517f1aa58eb000000000000000000000000000000000000000000000000000000000815260040160405180910390fd5b82600660006101000a81548173ffffffffffffffffffffffffffffffffffffffff021916908373ffffffffffffffffffffffffffffffffffffffff160217905550505050565b7f241ecf16d79d0f8dbfb92cbc07fe17840425976cf0667f022fe9877caa831b0862000325816200054660201b60201c565b81600073ffffffffffffffffffffffffffffffffffffffff168173ffffffffffffffffffffffffffffffffffffffff16036200038d576040517f1aa58eb000000000000000000000000000000000000000000000000000000000815260040160405180910390fd5b82600460006101000a81548173ffffffffffffffffffffffffffffffffffffffff021916908373ffffffffffffffffffffffffffffffffffffffff160217905550505050565b7f241ecf16d79d0f8dbfb92cbc07fe17840425976cf0667f022fe9877caa831b0862000405816200054660201b60201c565b6000821162000440576040517fa5e22aef00000000000000000000000000000000000000000000000000000000815260040160405180910390fd5b620004506200056a60201b60201c565b816005819055505050565b7f241ecf16d79d0f8dbfb92cbc07fe17840425976cf0667f022fe9877caa831b086200048d816200054660201b60201c565b60008211620004c8576040517fa5e22aef00000000000000000000000000000000000000000000000000000000815260040160405180910390fd5b816003819055505050565b60006002600084815260200190815260200160002060000160008373ffffffffffffffffffffffffffffffffffffffff1673ffffffffffffffffffffffffffffffffffffffff16815260200190815260200160002060009054906101000a900460ff16905092915050565b600033905090565b62000567816200055b6200053e60201b60201c565b6200072260201b60201c565b50565b60006007805480602002602001604051908101604052809291908181526020018280548015620005f057602002820191906000526020600020905b8160009054906101000a900473ffffffffffffffffffffffffffffffffffffffff1673ffffffffffffffffffffffffffffffffffffffff1681526020019060010190808311620005a5575b5050505050905060005b81518110156200071e57620006328282815181106200061e576200061d62000cd6565b5b6020026020010151620007ce60201b60201c565b600960008484815181106200064c576200064b62000cd6565b5b602002602001015173ffffffffffffffffffffffffffffffffffffffff1673ffffffffffffffffffffffffffffffffffffffff16815260200190815260200160002060008282546200069f919062000d34565b925050819055504260086000848481518110620006c157620006c062000cd6565b5b602002602001015173ffffffffffffffffffffffffffffffffffffffff1673ffffffffffffffffffffffffffffffffffffffff1681526020019081526020016000206002018190555080620007169062000d6f565b9050620005fa565b5050565b620007348282620004d360201b60201c565b620007ca576200074f81620008e760201b620017071760201c565b6200076a8360001c60206200091c60201b620017341760201c565b6040516020016200077d92919062000ed5565b6040516020818303038152906040526040517f08c379a0000000000000000000000000000000000000000000000000000000008152600401620007c1919062000f7a565b60405180910390fd5b5050565b600080620008dc6301e13380620008c8620f4240620008b4600860008973ffffffffffffffffffffffffffffffffffffffff1673ffffffffffffffffffffffffffffffffffffffff16815260200190815260200160002060000154620008a06005546200088c600860008d73ffffffffffffffffffffffffffffffffffffffff1673ffffffffffffffffffffffffffffffffffffffff168152602001908152602001600020600201544262000b7760201b620019701790919060201c565b62000b8f60201b620019861790919060201c565b62000b8f60201b620019861790919060201c565b62000ba760201b6200199c1790919060201c565b62000ba760201b6200199c1790919060201c565b905080915050919050565b6060620009158273ffffffffffffffffffffffffffffffffffffffff16601460ff166200091c60201b60201c565b9050919050565b60606000600283600262000931919062000f9e565b6200093d919062000d34565b67ffffffffffffffff81111562000959576200095862000fff565b5b6040519080825280601f01601f1916602001820160405280156200098c5781602001600182028036833780820191505090505b5090507f300000000000000000000000000000000000000000000000000000000000000081600081518110620009c757620009c662000cd6565b5b60200101907effffffffffffffffffffffffffffffffffffffffffffffffffffffffffffff1916908160001a9053507f78000000000000000000000000000000000000000000000000000000000000008160018151811062000a2e5762000a2d62000cd6565b5b60200101907effffffffffffffffffffffffffffffffffffffffffffffffffffffffffffff1916908160001a9053506000600184600262000a70919062000f9e565b62000a7c919062000d34565b90505b600181111562000b26577f3031323334353637383961626364656600000000000000000000000000000000600f86166010811062000ac25762000ac162000cd6565b5b1a60f81b82828151811062000adc5762000adb62000cd6565b5b60200101907effffffffffffffffffffffffffffffffffffffffffffffffffffffffffffff1916908160001a905350600485901c94508062000b1e906200102e565b905062000a7f565b506000841462000b6d576040517f08c379a000000000000000000000000000000000000000000000000000000000815260040162000b6490620010ac565b60405180910390fd5b8091505092915050565b6000818362000b879190620010ce565b905092915050565b6000818362000b9f919062000f9e565b905092915050565b6000818362000bb7919062001138565b905092915050565b600080fd5b600073ffffffffffffffffffffffffffffffffffffffff82169050919050565b600062000bf18262000bc4565b9050919050565b62000c038162000be4565b811462000c0f57600080fd5b50565b60008151905062000c238162000bf8565b92915050565b6000819050919050565b62000c3e8162000c29565b811462000c4a57600080fd5b50565b60008151905062000c5e8162000c33565b92915050565b6000806000806080858703121562000c815762000c8062000bbf565b5b600062000c918782880162000c12565b945050602062000ca48782880162000c12565b935050604062000cb78782880162000c4d565b925050606062000cca8782880162000c4d565b91505092959194509250565b7f4e487b7100000000000000000000000000000000000000000000000000000000600052603260045260246000fd5b7f4e487b7100000000000000000000000000000000000000000000000000000000600052601160045260246000fd5b600062000d418262000c29565b915062000d4e8362000c29565b925082820190508082111562000d695762000d6862000d05565b5b92915050565b600062000d7c8262000c29565b91507fffffffffffffffffffffffffffffffffffffffffffffffffffffffffffffffff820362000db15762000db062000d05565b5b600182019050919050565b600081905092915050565b7f416363657373436f6e74726f6c3a206163636f756e7420000000000000000000600082015250565b600062000dff60178362000dbc565b915062000e0c8262000dc7565b601782019050919050565b600081519050919050565b60005b8381101562000e4257808201518184015260208101905062000e25565b60008484015250505050565b600062000e5b8262000e17565b62000e67818562000dbc565b935062000e7981856020860162000e22565b80840191505092915050565b7f206973206d697373696e6720726f6c6520000000000000000000000000000000600082015250565b600062000ebd60118362000dbc565b915062000eca8262000e85565b601182019050919050565b600062000ee28262000df0565b915062000ef0828562000e4e565b915062000efd8262000eae565b915062000f0b828462000e4e565b91508190509392505050565b600082825260208201905092915050565b6000601f19601f8301169050919050565b600062000f468262000e17565b62000f52818562000f17565b935062000f6481856020860162000e22565b62000f6f8162000f28565b840191505092915050565b6000602082019050818103600083015262000f96818462000f39565b905092915050565b600062000fab8262000c29565b915062000fb88362000c29565b9250817fffffffffffffffffffffffffffffffffffffffffffffffffffffffffffffffff048311821515161562000ff45762000ff362000d05565b5b828202905092915050565b7f4e487b7100000000000000000000000000000000000000000000000000000000600052604160045260246000fd5b60006200103b8262000c29565b91506000820362001051576200105062000d05565b5b600182039050919050565b7f537472696e67733a20686578206c656e67746820696e73756666696369656e74600082015250565b60006200109460208362000f17565b9150620010a1826200105c565b602082019050919050565b60006020820190508181036000830152620010c78162001085565b9050919050565b6000620010db8262000c29565b9150620010e88362000c29565b925082820390508181111562001103576200110262000d05565b5b92915050565b7f4e487b7100000000000000000000000000000000000000000000000000000000600052601260045260246000fd5b6000620011458262000c29565b9150620011528362000c29565b92508262001165576200116462001109565b5b828204905092915050565b61333e80620011806000396000f3fe6080604052600436106101c65760003560e01c806388ee6a43116100f7578063b68490bc11610095578063d547741f11610064578063d547741f14610601578063e63ab1e91461062a578063ec87621c14610655578063ff85a2ba14610680576101cd565b8063b68490bc1461056b578063b88a802f14610594578063c4600ba0146105ab578063d1af0c7d146105d6576101cd565b80639852b30a116100d15780639852b30a146104b1578063a217fddf146104da578063a540d0db14610505578063a694fc3a14610542576101cd565b806388ee6a43146104225780638aee81271461044b57806391d1485414610474576101cd565b8063426233601161016457806372f702f31161013e57806372f702f31461039e5780637362377b146103c95780638456cb59146103e0578063859214bd146103f7576101cd565b8063426233601461030b5780635c975abb1461034a5780635d3eea9114610375576101cd565b80632d7d68f5116101a05780632d7d68f5146102775780632f2ff15d146102a257806336568abe146102cb5780633f4ba83a146102f4576101cd565b806301ffc9a7146101d2578063193f02861461020f578063248a9ca31461023a576101cd565b366101cd57005b600080fd5b3480156101de57600080fd5b506101f960048036038101906101f491906125bf565b6106a9565b6040516102069190612607565b60405180910390f35b34801561021b57600080fd5b50610224610723565b604051610231919061263b565b60405180910390f35b34801561024657600080fd5b50610261600480360381019061025c919061268c565b610729565b60405161026e91906126c8565b60405180910390f35b34801561028357600080fd5b5061028c610749565b604051610299919061263b565b60405180910390f35b3480156102ae57600080fd5b506102c960048036038101906102c49190612741565b610751565b005b3480156102d757600080fd5b506102f260048036038101906102ed9190612741565b610772565b005b34801561030057600080fd5b506103096107f5565b005b34801561031757600080fd5b50610332600480360381019061032d9190612781565b61082a565b604051610341939291906127ae565b60405180910390f35b34801561035657600080fd5b5061035f610854565b60405161036c9190612607565b60405180910390f35b34801561038157600080fd5b5061039c60048036038101906103979190612811565b61086b565b005b3480156103aa57600080fd5b506103b3610b42565b6040516103c0919061289d565b60405180910390f35b3480156103d557600080fd5b506103de610b68565b005b3480156103ec57600080fd5b506103f5610c89565b005b34801561040357600080fd5b5061040c610cbe565b6040516104199190612976565b60405180910390f35b34801561042e57600080fd5b5061044960048036038101906104449190612811565b610d7d565b005b34801561045757600080fd5b50610472600480360381019061046d9190612781565b610dec565b005b34801561048057600080fd5b5061049b60048036038101906104969190612741565b610ec3565b6040516104a89190612607565b60405180910390f35b3480156104bd57600080fd5b506104d860048036038101906104d39190612811565b610f2e565b005b3480156104e657600080fd5b506104ef610fa5565b6040516104fc91906126c8565b60405180910390f35b34801561051157600080fd5b5061052c60048036038101906105279190612781565b610fac565b604051610539919061263b565b60405180910390f35b34801561054e57600080fd5b5061056960048036038101906105649190612811565b610fc4565b005b34801561057757600080fd5b50610592600480360381019061058d9190612781565b61141b565b005b3480156105a057600080fd5b506105a96114f2565b005b3480156105b757600080fd5b506105c0611505565b6040516105cd919061263b565b60405180910390f35b3480156105e257600080fd5b506105eb61150b565b6040516105f8919061289d565b60405180910390f35b34801561060d57600080fd5b5061062860048036038101906106239190612741565b611531565b005b34801561063657600080fd5b5061063f611552565b60405161064c91906126c8565b60405180910390f35b34801561066157600080fd5b5061066a611576565b60405161067791906126c8565b60405180910390f35b34801561068c57600080fd5b506106a760048036038101906106a29190612781565b61159a565b005b60007f7965db0b000000000000000000000000000000000000000000000000000000007bffffffffffffffffffffffffffffffffffffffffffffffffffffffff1916827bffffffffffffffffffffffffffffffffffffffffffffffffffffffff1916148061071c575061071b826119b2565b5b9050919050565b60055481565b600060026000838152602001908152602001600020600101549050919050565b6301e1338081565b61075a82610729565b61076381611a1c565b61076d8383611a30565b505050565b61077a611b11565b73ffffffffffffffffffffffffffffffffffffffff168173ffffffffffffffffffffffffffffffffffffffff16146107e7576040517f08c379a00000000000000000000000000000000000000000000000000000000081526004016107de90612a1b565b60405180910390fd5b6107f18282611b19565b5050565b7f65d7a28e3265b37a6474929f336521b332c1681b933f6cb9f3376673440d862a61081f81611a1c565b610827611bfb565b50565b60086020528060005260406000206000915090508060000154908060010154908060020154905083565b6000600160009054906101000a900460ff16905090565b610873611c5e565b80600860003373ffffffffffffffffffffffffffffffffffffffff1673ffffffffffffffffffffffffffffffffffffffff1681526020019081526020016000206000015410156108ef576040517fc118cbf500000000000000000000000000000000000000000000000000000000815260040160405180910390fd5b610946600354600860003373ffffffffffffffffffffffffffffffffffffffff1673ffffffffffffffffffffffffffffffffffffffff16815260200190815260200160002060010154611ca890919063ffffffff16565b421161097e576040517f18179e1900000000000000000000000000000000000000000000000000000000815260040160405180910390fd5b6000600860003373ffffffffffffffffffffffffffffffffffffffff1673ffffffffffffffffffffffffffffffffffffffff1681526020019081526020016000206000015490506109ce33611cbe565b600960003373ffffffffffffffffffffffffffffffffffffffff1673ffffffffffffffffffffffffffffffffffffffff1681526020019081526020016000206000828254610a1c9190612a6a565b9250508190555081600860003373ffffffffffffffffffffffffffffffffffffffff1673ffffffffffffffffffffffffffffffffffffffff1681526020019081526020016000206000016000828254610a759190612a9e565b9250508190555042600860003373ffffffffffffffffffffffffffffffffffffffff1673ffffffffffffffffffffffffffffffffffffffff16815260200190815260200160002060020181905550610af033600660009054906101000a900473ffffffffffffffffffffffffffffffffffffffff1683611db4565b3373ffffffffffffffffffffffffffffffffffffffff167f0f5bb82176feb1b5e747e28471aa92156a04d9f3ab9f45f28e2d704232b93f7583604051610b36919061263b565b60405180910390a25050565b600660009054906101000a900473ffffffffffffffffffffffffffffffffffffffff1681565b7f241ecf16d79d0f8dbfb92cbc07fe17840425976cf0667f022fe9877caa831b08610b9281611a1c565b610b9a611e97565b600047905060008111610bd9576040517fc118cbf500000000000000000000000000000000000000000000000000000000815260040160405180910390fd5b60003373ffffffffffffffffffffffffffffffffffffffff1682604051610bff90612b03565b60006040518083038185875af1925050503d8060008114610c3c576040519150601f19603f3d011682016040523d82523d6000602084013e610c41565b606091505b5050905080610c7c576040517ffc6d194a00000000000000000000000000000000000000000000000000000000815260040160405180910390fd5b5050610c86611ee6565b50565b7f65d7a28e3265b37a6474929f336521b332c1681b933f6cb9f3376673440d862a610cb381611a1c565b610cbb611ef0565b50565b60607f241ecf16d79d0f8dbfb92cbc07fe17840425976cf0667f022fe9877caa831b08610cea81611a1c565b60006007805480602002602001604051908101604052809291908181526020018280548015610d6e57602002820191906000526020600020905b8160009054906101000a900473ffffffffffffffffffffffffffffffffffffffff1673ffffffffffffffffffffffffffffffffffffffff1681526020019060010190808311610d24575b50505050509050809250505090565b7f241ecf16d79d0f8dbfb92cbc07fe17840425976cf0667f022fe9877caa831b08610da781611a1c565b60008211610de1576040517fa5e22aef00000000000000000000000000000000000000000000000000000000815260040160405180910390fd5b816003819055505050565b7f241ecf16d79d0f8dbfb92cbc07fe17840425976cf0667f022fe9877caa831b08610e1681611a1c565b81600073ffffffffffffffffffffffffffffffffffffffff168173ffffffffffffffffffffffffffffffffffffffff1603610e7d576040517f1aa58eb000000000000000000000000000000000000000000000000000000000815260040160405180910390fd5b82600460006101000a81548173ffffffffffffffffffffffffffffffffffffffff021916908373ffffffffffffffffffffffffffffffffffffffff160217905550505050565b60006002600084815260200190815260200160002060000160008373ffffffffffffffffffffffffffffffffffffffff1673ffffffffffffffffffffffffffffffffffffffff16815260200190815260200160002060009054906101000a900460ff16905092915050565b7f241ecf16d79d0f8dbfb92cbc07fe17840425976cf0667f022fe9877caa831b08610f5881611a1c565b60008211610f92576040517fa5e22aef00000000000000000000000000000000000000000000000000000000815260040160405180910390fd5b610f9a611f52565b816005819055505050565b6000801b81565b60096020528060005260406000206000915090505481565b610fcc611e97565b80600660009054906101000a900473ffffffffffffffffffffffffffffffffffffffff1673ffffffffffffffffffffffffffffffffffffffff166370a08231336040518263ffffffff1660e01b81526004016110289190612b27565b602060405180830381865afa158015611045573d6000803e3d6000fd5b505050506040513d601f19601f820116820180604052508101906110699190612b57565b108061111057506000600660009054906101000a900473ffffffffffffffffffffffffffffffffffffffff1673ffffffffffffffffffffffffffffffffffffffff166370a08231336040518263ffffffff1660e01b81526004016110cd9190612b27565b602060405180830381865afa1580156110ea573d6000803e3d6000fd5b505050506040513d601f19601f8201168201806040525081019061110e9190612b57565b145b15611147576040517fc118cbf500000000000000000000000000000000000000000000000000000000815260040160405180910390fd5b611196333083600660009054906101000a900473ffffffffffffffffffffffffffffffffffffffff1673ffffffffffffffffffffffffffffffffffffffff166120f1909392919063ffffffff16565b6000600860003373ffffffffffffffffffffffffffffffffffffffff1673ffffffffffffffffffffffffffffffffffffffff16815260200190815260200160002060010154116112c357604051806060016040528082815260200142815260200142815250600860003373ffffffffffffffffffffffffffffffffffffffff1673ffffffffffffffffffffffffffffffffffffffff1681526020019081526020016000206000820151816000015560208201518160010155604082015181600201559050506007339080600181540180825580915050600190039060005260206000200160009091909190916101000a81548173ffffffffffffffffffffffffffffffffffffffff021916908373ffffffffffffffffffffffffffffffffffffffff1602179055506113c2565b6112cc33611cbe565b600960003373ffffffffffffffffffffffffffffffffffffffff1673ffffffffffffffffffffffffffffffffffffffff168152602001908152602001600020600082825461131a9190612a6a565b9250508190555042600860003373ffffffffffffffffffffffffffffffffffffffff1673ffffffffffffffffffffffffffffffffffffffff1681526020019081526020016000206002018190555080600860003373ffffffffffffffffffffffffffffffffffffffff1673ffffffffffffffffffffffffffffffffffffffff16815260200190815260200160002060000160008282546113ba9190612a6a565b925050819055505b3373ffffffffffffffffffffffffffffffffffffffff167f9e71bc8eea02a63969f509818f2dafb9254532904319f9dbda79b67bd34a5f3d82604051611408919061263b565b60405180910390a2611418611ee6565b50565b7f241ecf16d79d0f8dbfb92cbc07fe17840425976cf0667f022fe9877caa831b0861144581611a1c565b81600073ffffffffffffffffffffffffffffffffffffffff168173ffffffffffffffffffffffffffffffffffffffff16036114ac576040517f1aa58eb000000000000000000000000000000000000000000000000000000000815260040160405180910390fd5b82600660006101000a81548173ffffffffffffffffffffffffffffffffffffffff021916908373ffffffffffffffffffffffffffffffffffffffff160217905550505050565b6114fa611c5e565b6115033361159a565b565b60035481565b600460009054906101000a900473ffffffffffffffffffffffffffffffffffffffff1681565b61153a82610729565b61154381611a1c565b61154d8383611b19565b505050565b7f65d7a28e3265b37a6474929f336521b332c1681b933f6cb9f3376673440d862a81565b7f241ecf16d79d0f8dbfb92cbc07fe17840425976cf0667f022fe9877caa831b0881565b6115a2611c5e565b6115aa611e97565b60006116066115b883611cbe565b600960003373ffffffffffffffffffffffffffffffffffffffff1673ffffffffffffffffffffffffffffffffffffffff16815260200190815260200160002054611ca890919063ffffffff16565b905060008111611642576040517fb690cfc000000000000000000000000000000000000000000000000000000000815260040160405180910390fd5b6000600960003373ffffffffffffffffffffffffffffffffffffffff1673ffffffffffffffffffffffffffffffffffffffff1681526020019081526020016000208190555042600860008473ffffffffffffffffffffffffffffffffffffffff1673ffffffffffffffffffffffffffffffffffffffff168152602001908152602001600020600201819055506116fb82600460009054906101000a900473ffffffffffffffffffffffffffffffffffffffff1683611db4565b50611704611ee6565b50565b606061172d8273ffffffffffffffffffffffffffffffffffffffff16601460ff16611734565b9050919050565b6060600060028360026117479190612b84565b6117519190612a6a565b67ffffffffffffffff81111561176a57611769612bde565b5b6040519080825280601f01601f19166020018201604052801561179c5781602001600182028036833780820191505090505b5090507f3000000000000000000000000000000000000000000000000000000000000000816000815181106117d4576117d3612c0d565b5b60200101907effffffffffffffffffffffffffffffffffffffffffffffffffffffffffffff1916908160001a9053507f78000000000000000000000000000000000000000000000000000000000000008160018151811061183857611837612c0d565b5b60200101907effffffffffffffffffffffffffffffffffffffffffffffffffffffffffffff1916908160001a905350600060018460026118789190612b84565b6118829190612a6a565b90505b6001811115611922577f3031323334353637383961626364656600000000000000000000000000000000600f8616601081106118c4576118c3612c0d565b5b1a60f81b8282815181106118db576118da612c0d565b5b60200101907effffffffffffffffffffffffffffffffffffffffffffffffffffffffffffff1916908160001a905350600485901c94508061191b90612c3c565b9050611885565b5060008414611966576040517f08c379a000000000000000000000000000000000000000000000000000000000815260040161195d90612cb1565b60405180910390fd5b8091505092915050565b6000818361197e9190612a9e565b905092915050565b600081836119949190612b84565b905092915050565b600081836119aa9190612d00565b905092915050565b60007f01ffc9a7000000000000000000000000000000000000000000000000000000007bffffffffffffffffffffffffffffffffffffffffffffffffffffffff1916827bffffffffffffffffffffffffffffffffffffffffffffffffffffffff1916149050919050565b611a2d81611a28611b11565b61217a565b50565b611a3a8282610ec3565b611b0d5760016002600084815260200190815260200160002060000160008373ffffffffffffffffffffffffffffffffffffffff1673ffffffffffffffffffffffffffffffffffffffff16815260200190815260200160002060006101000a81548160ff021916908315150217905550611ab2611b11565b73ffffffffffffffffffffffffffffffffffffffff168173ffffffffffffffffffffffffffffffffffffffff16837f2f8788117e7eff1d82e926ec794901d17c78024a50270940304540a733656f0d60405160405180910390a45b5050565b600033905090565b611b238282610ec3565b15611bf75760006002600084815260200190815260200160002060000160008373ffffffffffffffffffffffffffffffffffffffff1673ffffffffffffffffffffffffffffffffffffffff16815260200190815260200160002060006101000a81548160ff021916908315150217905550611b9c611b11565b73ffffffffffffffffffffffffffffffffffffffff168173ffffffffffffffffffffffffffffffffffffffff16837ff6391f5c32d9c69d2a47ea670b442974b53935d1edc7fd64eb21e047a839171b60405160405180910390a45b5050565b611c036121ff565b6000600160006101000a81548160ff0219169083151502179055507f5db9ee0a495bf2e6ff9c91a7834c1ba4fdd244a5e8aa4e537bd38aeae4b073aa611c47611b11565b604051611c549190612b27565b60405180910390a1565b611c66610854565b15611ca6576040517f08c379a0000000000000000000000000000000000000000000000000000000008152600401611c9d90612d7d565b60405180910390fd5b565b60008183611cb69190612a6a565b905092915050565b600080611da96301e13380611d9b620f4240611d8d600860008973ffffffffffffffffffffffffffffffffffffffff1673ffffffffffffffffffffffffffffffffffffffff16815260200190815260200160002060000154611d7f600554611d71600860008d73ffffffffffffffffffffffffffffffffffffffff1673ffffffffffffffffffffffffffffffffffffffff168152602001908152602001600020600201544261197090919063ffffffff16565b61198690919063ffffffff16565b61198690919063ffffffff16565b61199c90919063ffffffff16565b61199c90919063ffffffff16565b905080915050919050565b808273ffffffffffffffffffffffffffffffffffffffff166370a08231306040518263ffffffff1660e01b8152600401611dee9190612b27565b602060405180830381865afa158015611e0b573d6000803e3d6000fd5b505050506040513d601f19601f82011682018060405250810190611e2f9190612b57565b1015611e67576040517fc118cbf500000000000000000000000000000000000000000000000000000000815260040160405180910390fd5b611e9283828473ffffffffffffffffffffffffffffffffffffffff166122489092919063ffffffff16565b505050565b600260005403611edc576040517f08c379a0000000000000000000000000000000000000000000000000000000008152600401611ed390612de9565b60405180910390fd5b6002600081905550565b6001600081905550565b611ef8611c5e565b60018060006101000a81548160ff0219169083151502179055507f62e78cea01bee320cd4e420270b5ea74000d11b0c9f74754ebdbfc544b05a258611f3b611b11565b604051611f489190612b27565b60405180910390a1565b60006007805480602002602001604051908101604052809291908181526020018280548015611fd657602002820191906000526020600020905b8160009054906101000a900473ffffffffffffffffffffffffffffffffffffffff1673ffffffffffffffffffffffffffffffffffffffff1681526020019060010190808311611f8c575b5050505050905060005b81518110156120ed5761200c828281518110611fff57611ffe612c0d565b5b6020026020010151611cbe565b6009600084848151811061202357612022612c0d565b5b602002602001015173ffffffffffffffffffffffffffffffffffffffff1673ffffffffffffffffffffffffffffffffffffffff16815260200190815260200160002060008282546120749190612a6a565b92505081905550426008600084848151811061209357612092612c0d565b5b602002602001015173ffffffffffffffffffffffffffffffffffffffff1673ffffffffffffffffffffffffffffffffffffffff16815260200190815260200160002060020181905550806120e690612e09565b9050611fe0565b5050565b612174846323b872dd60e01b85858560405160240161211293929190612e51565b604051602081830303815290604052907bffffffffffffffffffffffffffffffffffffffffffffffffffffffff19166020820180517bffffffffffffffffffffffffffffffffffffffffffffffffffffffff83818316178352505050506122ce565b50505050565b6121848282610ec3565b6121fb5761219181611707565b61219f8360001c6020611734565b6040516020016121b0929190612f91565b6040516020818303038152906040526040517f08c379a00000000000000000000000000000000000000000000000000000000081526004016121f29190613015565b60405180910390fd5b5050565b612207610854565b612246576040517f08c379a000000000000000000000000000000000000000000000000000000000815260040161223d90613083565b60405180910390fd5b565b6122c98363a9059cbb60e01b84846040516024016122679291906130a3565b604051602081830303815290604052907bffffffffffffffffffffffffffffffffffffffffffffffffffffffff19166020820180517bffffffffffffffffffffffffffffffffffffffffffffffffffffffff83818316178352505050506122ce565b505050565b6000612330826040518060400160405280602081526020017f5361666545524332303a206c6f772d6c6576656c2063616c6c206661696c65648152508573ffffffffffffffffffffffffffffffffffffffff166123959092919063ffffffff16565b9050600081511115612390578080602001905181019061235091906130f8565b61238f576040517f08c379a000000000000000000000000000000000000000000000000000000000815260040161238690613197565b60405180910390fd5b5b505050565b60606123a484846000856123ad565b90509392505050565b6060824710156123f2576040517f08c379a00000000000000000000000000000000000000000000000000000000081526004016123e990613229565b60405180910390fd5b6000808673ffffffffffffffffffffffffffffffffffffffff16858760405161241b9190613285565b60006040518083038185875af1925050503d8060008114612458576040519150601f19603f3d011682016040523d82523d6000602084013e61245d565b606091505b509150915061246e8783838761247a565b92505050949350505050565b606083156124dc5760008351036124d457612494856124ef565b6124d3576040517f08c379a00000000000000000000000000000000000000000000000000000000081526004016124ca906132e8565b60405180910390fd5b5b8290506124e7565b6124e68383612512565b5b949350505050565b6000808273ffffffffffffffffffffffffffffffffffffffff163b119050919050565b6000825111156125255781518083602001fd5b806040517f08c379a00000000000000000000000000000000000000000000000000000000081526004016125599190613015565b60405180910390fd5b600080fd5b60007fffffffff0000000000000000000000000000000000000000000000000000000082169050919050565b61259c81612567565b81146125a757600080fd5b50565b6000813590506125b981612593565b92915050565b6000602082840312156125d5576125d4612562565b5b60006125e3848285016125aa565b91505092915050565b60008115159050919050565b612601816125ec565b82525050565b600060208201905061261c60008301846125f8565b92915050565b6000819050919050565b61263581612622565b82525050565b6000602082019050612650600083018461262c565b92915050565b6000819050919050565b61266981612656565b811461267457600080fd5b50565b60008135905061268681612660565b92915050565b6000602082840312156126a2576126a1612562565b5b60006126b084828501612677565b91505092915050565b6126c281612656565b82525050565b60006020820190506126dd60008301846126b9565b92915050565b600073ffffffffffffffffffffffffffffffffffffffff82169050919050565b600061270e826126e3565b9050919050565b61271e81612703565b811461272957600080fd5b50565b60008135905061273b81612715565b92915050565b6000806040838503121561275857612757612562565b5b600061276685828601612677565b92505060206127778582860161272c565b9150509250929050565b60006020828403121561279757612796612562565b5b60006127a58482850161272c565b91505092915050565b60006060820190506127c3600083018661262c565b6127d0602083018561262c565b6127dd604083018461262c565b949350505050565b6127ee81612622565b81146127f957600080fd5b50565b60008135905061280b816127e5565b92915050565b60006020828403121561282757612826612562565b5b6000612835848285016127fc565b91505092915050565b6000819050919050565b600061286361285e612859846126e3565b61283e565b6126e3565b9050919050565b600061287582612848565b9050919050565b60006128878261286a565b9050919050565b6128978161287c565b82525050565b60006020820190506128b2600083018461288e565b92915050565b600081519050919050565b600082825260208201905092915050565b6000819050602082019050919050565b6128ed81612703565b82525050565b60006128ff83836128e4565b60208301905092915050565b6000602082019050919050565b6000612923826128b8565b61292d81856128c3565b9350612938836128d4565b8060005b8381101561296957815161295088826128f3565b975061295b8361290b565b92505060018101905061293c565b5085935050505092915050565b600060208201905081810360008301526129908184612918565b905092915050565b600082825260208201905092915050565b7f416363657373436f6e74726f6c3a2063616e206f6e6c792072656e6f756e636560008201527f20726f6c657320666f722073656c660000000000000000000000000000000000602082015250565b6000612a05602f83612998565b9150612a10826129a9565b604082019050919050565b60006020820190508181036000830152612a34816129f8565b9050919050565b7f4e487b7100000000000000000000000000000000000000000000000000000000600052601160045260246000fd5b6000612a7582612622565b9150612a8083612622565b9250828201905080821115612a9857612a97612a3b565b5b92915050565b6000612aa982612622565b9150612ab483612622565b9250828203905081811115612acc57612acb612a3b565b5b92915050565b600081905092915050565b50565b6000612aed600083612ad2565b9150612af882612add565b600082019050919050565b6000612b0e82612ae0565b9150819050919050565b612b2181612703565b82525050565b6000602082019050612b3c6000830184612b18565b92915050565b600081519050612b51816127e5565b92915050565b600060208284031215612b6d57612b6c612562565b5b6000612b7b84828501612b42565b91505092915050565b6000612b8f82612622565b9150612b9a83612622565b9250817fffffffffffffffffffffffffffffffffffffffffffffffffffffffffffffffff0483118215151615612bd357612bd2612a3b565b5b828202905092915050565b7f4e487b7100000000000000000000000000000000000000000000000000000000600052604160045260246000fd5b7f4e487b7100000000000000000000000000000000000000000000000000000000600052603260045260246000fd5b6000612c4782612622565b915060008203612c5a57612c59612a3b565b5b600182039050919050565b7f537472696e67733a20686578206c656e67746820696e73756666696369656e74600082015250565b6000612c9b602083612998565b9150612ca682612c65565b602082019050919050565b60006020820190508181036000830152612cca81612c8e565b9050919050565b7f4e487b7100000000000000000000000000000000000000000000000000000000600052601260045260246000fd5b6000612d0b82612622565b9150612d1683612622565b925082612d2657612d25612cd1565b5b828204905092915050565b7f5061757361626c653a2070617573656400000000000000000000000000000000600082015250565b6000612d67601083612998565b9150612d7282612d31565b602082019050919050565b60006020820190508181036000830152612d9681612d5a565b9050919050565b7f5265656e7472616e637947756172643a207265656e7472616e742063616c6c00600082015250565b6000612dd3601f83612998565b9150612dde82612d9d565b602082019050919050565b60006020820190508181036000830152612e0281612dc6565b9050919050565b6000612e1482612622565b91507fffffffffffffffffffffffffffffffffffffffffffffffffffffffffffffffff8203612e4657612e45612a3b565b5b600182019050919050565b6000606082019050612e666000830186612b18565b612e736020830185612b18565b612e80604083018461262c565b949350505050565b600081905092915050565b7f416363657373436f6e74726f6c3a206163636f756e7420000000000000000000600082015250565b6000612ec9601783612e88565b9150612ed482612e93565b601782019050919050565b600081519050919050565b60005b83811015612f08578082015181840152602081019050612eed565b60008484015250505050565b6000612f1f82612edf565b612f298185612e88565b9350612f39818560208601612eea565b80840191505092915050565b7f206973206d697373696e6720726f6c6520000000000000000000000000000000600082015250565b6000612f7b601183612e88565b9150612f8682612f45565b601182019050919050565b6000612f9c82612ebc565b9150612fa88285612f14565b9150612fb382612f6e565b9150612fbf8284612f14565b91508190509392505050565b6000601f19601f8301169050919050565b6000612fe782612edf565b612ff18185612998565b9350613001818560208601612eea565b61300a81612fcb565b840191505092915050565b6000602082019050818103600083015261302f8184612fdc565b905092915050565b7f5061757361626c653a206e6f7420706175736564000000000000000000000000600082015250565b600061306d601483612998565b915061307882613037565b602082019050919050565b6000602082019050818103600083015261309c81613060565b9050919050565b60006040820190506130b86000830185612b18565b6130c5602083018461262c565b9392505050565b6130d5816125ec565b81146130e057600080fd5b50565b6000815190506130f2816130cc565b92915050565b60006020828403121561310e5761310d612562565b5b600061311c848285016130e3565b91505092915050565b7f5361666545524332303a204552433230206f7065726174696f6e20646964206e60008201527f6f74207375636365656400000000000000000000000000000000000000000000602082015250565b6000613181602a83612998565b915061318c82613125565b604082019050919050565b600060208201905081810360008301526131b081613174565b9050919050565b7f416464726573733a20696e73756666696369656e742062616c616e636520666f60008201527f722063616c6c0000000000000000000000000000000000000000000000000000602082015250565b6000613213602683612998565b915061321e826131b7565b604082019050919050565b6000602082019050818103600083015261324281613206565b9050919050565b600081519050919050565b600061325f82613249565b6132698185612ad2565b9350613279818560208601612eea565b80840191505092915050565b60006132918284613254565b915081905092915050565b7f416464726573733a2063616c6c20746f206e6f6e2d636f6e7472616374000000600082015250565b60006132d2601d83612998565b91506132dd8261329c565b602082019050919050565b60006020820190508181036000830152613301816132c5565b905091905056fea2646970667358221220903ce87d2068dad46b07a92107ef8b73a8dde8a4b484f4b81549afdc0c8e6deb64736f6c63430008100033",
  "devdoc": {
    "kind": "dev",
    "methods": {
      "claimRewardFor(address)": {
        "params": {
          "_beneficiary": "The recipient address"
        }
      },
      "getRoleAdmin(bytes32)": {
        "details": "Returns the admin role that controls `role`. See {grantRole} and {revokeRole}. To change a role's admin, use {_setRoleAdmin}."
      },
      "grantRole(bytes32,address)": {
        "details": "Grants `role` to `account`. If `account` had not been already granted `role`, emits a {RoleGranted} event. Requirements: - the caller must have ``role``'s admin role. May emit a {RoleGranted} event."
      },
      "hasRole(bytes32,address)": {
        "details": "Returns `true` if `account` has been granted `role`."
      },
      "pause()": {
        "details": "Pauses the contract"
      },
      "paused()": {
        "details": "Returns true if the contract is paused, and false otherwise."
      },
      "renounceRole(bytes32,address)": {
        "details": "Revokes `role` from the calling account. Roles are often managed via {grantRole} and {revokeRole}: this function's purpose is to provide a mechanism for accounts to lose their privileges if they are compromised (such as when a trusted device is misplaced). If the calling account had been revoked `role`, emits a {RoleRevoked} event. Requirements: - the caller must be `account`. May emit a {RoleRevoked} event."
      },
      "revokeRole(bytes32,address)": {
        "details": "Revokes `role` from `account`. If `account` had been granted `role`, emits a {RoleRevoked} event. Requirements: - the caller must have ``role``'s admin role. May emit a {RoleRevoked} event."
      },
      "setRewardsRateX1m(uint256)": {
        "params": {
          "_rateX1m": "is the yield on the staked token X 1,000,000 e.g 100 rewardsToken for every 1 stakingToken staked for 1 year, _rateX1m = 100 * (10**6) = 10**8"
        }
      },
      "stake(uint256)": {
        "params": {
          "_amount": "The amount of stakingToken to stake"
        }
      },
      "supportsInterface(bytes4)": {
        "details": "See {IERC165-supportsInterface}."
      },
      "unStake(uint256)": {
        "params": {
          "_amount": "The amount of stakingToken to withdraw"
        }
      },
      "unpause()": {
        "details": "Unpauses the contract"
      }
    },
    "version": 1
  },
  "userdoc": {
    "kind": "user",
    "methods": {
      "claimReward()": {
        "notice": "Claim reward tokens"
      },
      "claimRewardFor(address)": {
        "notice": "Claim reward on behalf of the staker"
      },
      "setRewardsRateX1m(uint256)": {
        "notice": "This function updates the accumulated rewards of all stakers before changing the staking reward rate"
      },
      "stake(uint256)": {
        "notice": "Stake the allowed token"
      },
      "unStake(uint256)": {
        "notice": "Allow stakers to unstake their token"
      },
      "withdrawEther()": {
        "notice": "Only the manager role can withdraw ether sent to the contract"
      }
    },
    "version": 1
  },
  "storageLayout": {
    "storage": [
      {
        "astId": 620,
        "contract": "contracts/StakingToken.sol:StakingToken",
        "label": "_status",
        "offset": 0,
        "slot": "0",
        "type": "t_uint256"
      },
      {
        "astId": 519,
        "contract": "contracts/StakingToken.sol:StakingToken",
        "label": "_paused",
        "offset": 0,
        "slot": "1",
        "type": "t_bool"
      },
      {
        "astId": 24,
        "contract": "contracts/StakingToken.sol:StakingToken",
        "label": "_roles",
        "offset": 0,
        "slot": "2",
        "type": "t_mapping(t_bytes32,t_struct(RoleData)19_storage)"
      },
      {
        "astId": 3659,
        "contract": "contracts/StakingToken.sol:StakingToken",
        "label": "minStakingPeriodInSec",
        "offset": 0,
        "slot": "3",
        "type": "t_uint256"
      },
      {
        "astId": 3662,
        "contract": "contracts/StakingToken.sol:StakingToken",
        "label": "rewardsToken",
        "offset": 0,
        "slot": "4",
        "type": "t_contract(IERC20)1328"
      },
      {
        "astId": 3664,
        "contract": "contracts/StakingToken.sol:StakingToken",
        "label": "returnOnStakingX1m",
        "offset": 0,
        "slot": "5",
        "type": "t_uint256"
      },
      {
        "astId": 3667,
        "contract": "contracts/StakingToken.sol:StakingToken",
        "label": "stakingToken",
        "offset": 0,
        "slot": "6",
        "type": "t_contract(IERC20)1328"
      },
      {
        "astId": 3670,
        "contract": "contracts/StakingToken.sol:StakingToken",
        "label": "stakersAddresses",
        "offset": 0,
        "slot": "7",
        "type": "t_array(t_address)dyn_storage"
      },
      {
        "astId": 3682,
        "contract": "contracts/StakingToken.sol:StakingToken",
        "label": "stakeOf",
        "offset": 0,
        "slot": "8",
        "type": "t_mapping(t_address,t_struct(stakeStruct)3677_storage)"
      },
      {
        "astId": 3686,
        "contract": "contracts/StakingToken.sol:StakingToken",
        "label": "accumulatedRewardAmount",
        "offset": 0,
        "slot": "9",
        "type": "t_mapping(t_address,t_uint256)"
      }
    ],
    "types": {
      "t_address": {
        "encoding": "inplace",
        "label": "address",
        "numberOfBytes": "20"
      },
      "t_array(t_address)dyn_storage": {
        "base": "t_address",
        "encoding": "dynamic_array",
        "label": "address[]",
        "numberOfBytes": "32"
      },
      "t_bool": {
        "encoding": "inplace",
        "label": "bool",
        "numberOfBytes": "1"
      },
      "t_bytes32": {
        "encoding": "inplace",
        "label": "bytes32",
        "numberOfBytes": "32"
      },
      "t_contract(IERC20)1328": {
        "encoding": "inplace",
        "label": "contract IERC20",
        "numberOfBytes": "20"
      },
      "t_mapping(t_address,t_bool)": {
        "encoding": "mapping",
        "key": "t_address",
        "label": "mapping(address => bool)",
        "numberOfBytes": "32",
        "value": "t_bool"
      },
      "t_mapping(t_address,t_struct(stakeStruct)3677_storage)": {
        "encoding": "mapping",
        "key": "t_address",
        "label": "mapping(address => struct StakingToken.stakeStruct)",
        "numberOfBytes": "32",
        "value": "t_struct(stakeStruct)3677_storage"
      },
      "t_mapping(t_address,t_uint256)": {
        "encoding": "mapping",
        "key": "t_address",
        "label": "mapping(address => uint256)",
        "numberOfBytes": "32",
        "value": "t_uint256"
      },
      "t_mapping(t_bytes32,t_struct(RoleData)19_storage)": {
        "encoding": "mapping",
        "key": "t_bytes32",
        "label": "mapping(bytes32 => struct AccessControl.RoleData)",
        "numberOfBytes": "32",
        "value": "t_struct(RoleData)19_storage"
      },
      "t_struct(RoleData)19_storage": {
        "encoding": "inplace",
        "label": "struct AccessControl.RoleData",
        "members": [
          {
            "astId": 16,
            "contract": "contracts/StakingToken.sol:StakingToken",
            "label": "members",
            "offset": 0,
            "slot": "0",
            "type": "t_mapping(t_address,t_bool)"
          },
          {
            "astId": 18,
            "contract": "contracts/StakingToken.sol:StakingToken",
            "label": "adminRole",
            "offset": 0,
            "slot": "1",
            "type": "t_bytes32"
          }
        ],
        "numberOfBytes": "64"
      },
      "t_struct(stakeStruct)3677_storage": {
        "encoding": "inplace",
        "label": "struct StakingToken.stakeStruct",
        "members": [
          {
            "astId": 3672,
            "contract": "contracts/StakingToken.sol:StakingToken",
            "label": "amount",
            "offset": 0,
            "slot": "0",
            "type": "t_uint256"
          },
          {
            "astId": 3674,
            "contract": "contracts/StakingToken.sol:StakingToken",
            "label": "startTime",
            "offset": 0,
            "slot": "1",
            "type": "t_uint256"
          },
          {
            "astId": 3676,
            "contract": "contracts/StakingToken.sol:StakingToken",
            "label": "lastClaimTime",
            "offset": 0,
            "slot": "2",
            "type": "t_uint256"
          }
        ],
        "numberOfBytes": "96"
      },
      "t_uint256": {
        "encoding": "inplace",
        "label": "uint256",
        "numberOfBytes": "32"
      }
    }
  }
}